:100000000C9469010C9486010C9486010C940518DB
:100010000C9486010C9486010C9486010C94860144
:100020000C9486010C9486010C94AD1E0C94811FD7
:100030000C94E4190C9486010C9486010C948601AE
:100040000C9486010C9486010C9486010C94860114
:100050000C9486010C94871A0C9486010C948601EA
:100060000C9486010C9486010C9486010C948601F4
:100070000C9486010C9486010C9486010C948601E4
:100080000C9486010C9486010C9486010C948601D4
:100090000C9486010C9486010C9486010C948601C4
:1000A0000C9486010C9486010C94860129001E0094
:1000B0001F002000210022002B0014001A0008005D
:1000C00015001700E00004001600070009000A00F0
:1000D000E1001D001B000600190005000000E30000
:1000E000E2002A002C002F00350027002600250002
:1000F000240023003100130012000C0018001C0023
:10010000340033000F000E000D000B00E500380036
:1001100037003600100011000000E30021524C00AF
:10012000280030003A003B003C003D003E003F000C
:100130000100767CA9000000000000003900BC002E
:10014000AA00BB000000000001000000A8000000A1
:10015000000000000000010001000100010001009A
:1001600045004400430042004100400001000000FF
:100170004D004B004E004A00010001004F005200AC
:1001800051005000010001002E002D00350000003C
:100190000000010000000100010001003A003B00E6
:1001A0003C003D003E003F00000000000000000059
:1001B000AC00AB0000000000BD000000AE00A900D4
:1001C00082000000BE000000AD00AA000000000098
:1001D00000000000A552A800450044004300420072
:1001E0004100400046000000000000000000000048
:1001F000000000004F0052005100500000000000BD
:1002000000000000000000000000000000000000EE
:100210000000000000AE00AF00DA0281FFD9F1DB80
:1002200020A4A62EAF00A0C000A1C800AED580A813
:100230001FD300408D1420000E034C0069006C0099
:10024000790035003800000010036C0069006C0074
:10025000690075006D0073000000040309040902C1
:100260002200010100A0FA090400000103010100BD
:100270000921110100012240000705810308000146
:100280001201000200000008D8042DEB0001010259
:10029000000105010906A101050719E029E715007C
:1002A00025019508750181029501750881010507F1
:1002B000190029FF150026FF009506750881000525
:1002C000081901290595057501910295017503919C
:1002D00001C011241FBECFEFDAE0DEBFCDBF11E0B9
:1002E000A0E0B1E0E8E4F4E402C005900D92A0348F
:1002F000B107D9F724E0A0E4B1E001C01D92AF3509
:10030000B207E1F70E949F120C94E3210C940000C5
:100310008330B8F46A30A8F4463098F450E096E0A0
:10032000699F400D511D1124FA019CE3899FE00D46
:10033000F11D1124EE0FFF1FE455FF4F859194919D
:10034000089581E090E008950E948801089581E079
:10035000089581E008950E94A901089508950E94DA
:10036000AE010895A5E0B0E0E8EBF1E00C94632164
:1003700049835A833091470189819A81311119C08B
:10038000662399F0222389F00E94E106182F682F36
:1003900089819A810E94BD0669817A81812F0E949C
:1003A000990D2596E3E00C947F210E94CF06182F2B
:1003B000F3CF0E94E10669817A81F1CFFC01262FFB
:1003C000408151816281738184810E94B2010895CC
:1003D00081E00895CF93DF93EC0160E00E94DE019D
:1003E000BE010E94AF01DF91CF91089508950E9450
:1003F0008C050E94F6012FEF84E39CE021508040A1
:100400009040E1F700C0000008950E94F7010E94AB
:10041000AB1A08950E94F7010E94BC1A08950F9329
:100420001F93CF93DF938C0161E00E94DE01EC010A
:10043000B8010E94AB01811106C080E0DF91CF912D
:100440001F910F910895B801CE010E94351688239F
:10045000A1F3B801CE010E94CB14882371F3B80137
:10046000CE010E94A715882341F3F80182818823D9
:1004700061F0C330FCE7DF07E9F058F4C115ECE7A1
:10048000DE07A9F0C130DC47B9F0C8010E94A7011E
:10049000D5CFCB358CE7D807A9F0CC35ECE7DE0714
:1004A00071F0CA35DC4789F70E94120BEECF0E942B
:1004B0000502C3CF0E941A0B0E940A02BECF0E94FF
:1004C000080BE3CF0E94160BE0CF0E94C1190E94D7
:1004D0008E020E94731408950E9492020E94C6190F
:1004E0000895089581E008950895CF93DF93D82F5C
:1004F0000E947202C82F882319F08D2F0E94740267
:100500008C2FDF91CF9108950895CF93C82F0E942B
:1005100071028C2F0E947502CF91089580E00E9495
:10052000850208950E942B190E9485020895CF9399
:100530000E942B19C82F809142018C1779F0C0932B
:1005400042010E94501A60934301709344018093CA
:100550004501909346018C2F0E948502CF9108950A
:10056000ABE0B0E0E6EBF2E00C9464214F835887F7
:1005700069877A878B8761110E94530A1E821D82C8
:1005800085E0FE013796DE01119601900D928A9565
:10059000E1F78C819D81892B61F449815A816B81BE
:1005A0007C818D819E810E947B092B96E2E00C94D8
:1005B000802189819A8189238F3F79F3CE01019629
:1005C0000E94E8018111E9CFF0CFFC018081918187
:1005D0000E9413070895CF93C82F8823B9F08CEF9A
:1005E0008C0F813AA8F46C2F809100019091010149
:1005F0000E945C19882329F08C2F0E94130A0E9404
:10060000740A8C2F0E940B0A0E94740ACF910895DD
:1006100080E28C0F8830D0F7C77081E001C0880F6E
:10062000CA95EAF70E94360AEFCF882341F09CEF83
:10063000980F913A28F40E94130A0E94740A0895B0
:1006400090E2980F9830D8F7877091E001C0990F29
:100650008A95EAF7892F0E943C0AEFCF1F93CF9328
:10066000DF93182FEB010E94EB02209739F4812FC2
:100670000E941503DF91CF911F9108958FE99FE0AC
:100680000197F1F700C000002197EFCF70E060E024
:10069000893311F460E570E00E942E0308958823E9
:1006A00021F00E94360A0E94740A0895882321F0DE
:1006B0000E943C0A0E94740A0895B0E0A0E0E3E6BC
:1006C000F3E00C945D216C01D62FC72FFC01128141
:1006D000058102950F700E942C0AE82E8823E9F00C
:1006E000E12E1123D1F08C2F807F803451F080E2F5
:1006F0008D0F8830F8F0011104C08C2F807E80327D
:10070000C9F080912F0282FF15C082E00E94D70AB3
:100710000E942C0A91E0E82EE926BC2EB2949FE0BC
:10072000B922FBE0FB15B8F1EB2DF0E0EB51FE4DEB
:100730000C944E21E12CF1CF0C2F0F70C07F11F0E3
:100740000295007F112399F0002359F080E28D0F6C
:10075000883010F0D11107C0802F0E94360A0E9405
:10076000740A8D2F63C0802F0E94460AF8CF8D2F08
:100770000E941503002379F080E28D0F883010F07D
:10078000D11104C0802F0E943C0A03C0802F0E9418
:100790004C0A0E94740A2B2D2850330B243031054B
:1007A00020F40E942B190E948502EE2089F00E94FD
:1007B000280A80FD0DC0F60112820E94220A0E94C2
:1007C0001B06C6010E9458050E94220A0E942B06A1
:1007D000CDB7DEB7E9E00C9479212C2F2F70F22EE3
:1007E000C07FC03219F0F29480EFF822DD2381F04F
:1007F000D13009F449C0112309F451C0002309F490
:1008000048C0F601858180FFACCF8F70858341C0E1
:1008100080912F0282FD15C0112359F0FF2029F08D
:100820008F2D0E94360A0E94740A80E00E94EB021B
:10083000B2CF80E00E941503FF2009F4ACCF8F2DCA
:10084000A2CF112381F0011106C00E94560A8F2900
:100850000E944F03A0CF0130C1F70E94560A8F2992
:100860000E945D0A98CF011106C00E946A0A8F2D6E
:100870000E94560390CF013009F48DCF8F2D0E9436
:1008800056030E946A0A87CF112329F0063008F028
:1008900082CF8F2DDDCF053008F07DCFE8CF00234C
:1008A00031F3D93349F4FFEF27EE33E0F150204024
:1008B0003040E1F700C000008D2F0E9415036BCF80
:1008C0008C2F8370A1F5111166CF4D2F429546955F
:1008D0004770440F440F2D2F2F7030E0042E02C0BC
:1008E000220F331F0A94E2F790E080E0D4FF09C0A2
:1008F0008FE090E002C0880F991F4A95E2F780953B
:100900009095C695C695C370822B932BC23049F043
:1009100058F4C13019F00E94EB053DCF0E94E2056A
:100920003ACF0E94F40537CF0E94DF0534CF869579
:10093000112311F08C2F8170882309F42CCF4D2FB7
:10094000429546954770440F440F2D2F2F7030E08D
:10095000042E02C0220F331F0A94E2F790E080E0D9
:10096000D4FF09C08FE090E002C0880F991F4A951C
:10097000E2F780959095C695C695C370822B932B10
:10098000C23049F058F4C13019F00E94560603CF26
:100990000E944D0600CF0E945F06FDCE0E94030616
:1009A000FACECF70112329F08C2F0E941B068D2FB9
:1009B0004FCF8D2F0E9456038C2F0E942B06EBCE1B
:1009C000D23F41F160F4D03FB9F0D13F81F0112323
:1009D00009F446C00111C5CE8C2F8F711FC0D33FC3
:1009E00001F1D43FA1F780912F0282FD24C08C2F0A
:1009F0008F71112311F312C0112341F0053008F05B
:100A0000CACE8C2F8F710E943D06C5CE063008F0ED
:100A1000C2CEF7CF8C2F8F711111CFCF0E941B0642
:100A2000BACE112329F08C2F8F710E940F06B3CEFE
:100A30000E940A06B0CE112349F0CF718C2F0E947C
:100A40001B0663E08C2F0E94B90AA5CE81E00E94AC
:100A5000D70A023008F49FCE82E00E94D70A9BCECC
:100A6000002359F0D93309F027CF8FEF97EEE3E059
:100A700081509040E040E1F71DCF8C2F8F719DCFCA
:100A80000F931F93CF93DF93EC01688179818A8163
:100A90000E941E078C010E9468060E94DE05B801B4
:100AA000CE010E945D03DF91CF911F910F910895B8
:100AB000CF93DF93EC018B819C81892B29F0888176
:100AC000998189238F3F51F4DF91CF910895CE0111
:100AD0000E944005CE010E94EA01F6CFCE010E949D
:100AE0000F028111F4CF0E942C0A882369F38A81B6
:100AF000882351F380912F0282FFE6CF82E00E948B
:100B0000D70AE2CF0E94530A0E94740A08950E94F5
:100B10001B0A0E94820508950E94430A0E948705CD
:100B2000089592959F70963091F058F4925F9F705F
:100B3000923058F4803F19F030F4883E30F481E070
:100B400008959A5FF4CF843FD1F380E00895883E02
:100B5000B0F3813FD1F7F3CFFC0183819481892BDE
:100B600029F08081918189238F3F11F480E00895DD
:100B7000808191810E9413070E9491050895A5E04C
:100B8000B0E0E5ECF5E00C9464212596E2E00C94ED
:100B90008021A6E0B0E0EFECF5E00C94642126960D
:100BA000E2E00C94802108950E94D30508950E94EC
:100BB000D40590936B0180936A01089508950E9473
:100BC000D705089520916A0130916B01822B932BF8
:100BD0000E94D705089520916A0130916B0182230C
:100BE00093230E94D705089520916A0130916B01EB
:100BF000822793270E94D70508950E94D305089560
:100C00000E94FD0508950E9400069093690180935B
:100C10006801089590E080E00E940306089521E0B5
:100C200030E0A90102C0440F551F8A95E2F7CA01BE
:100C30000E940306089521E030E002C0220F331F16
:100C40008A95E2F78091680190916901822B932B3C
:100C50000E940306089521E030E002C0220F331FF6
:100C60008A95E2F72095309580916801909169010D
:100C7000822393230E940306089521E030E002C0FE
:100C8000220F331F8A95E2F78091680190916901E4
:100C9000822793270E9403060895209168013091CE
:100CA0006901822B932B0E9403060895209168010D
:100CB00030916901822393230E94030608952091B5
:100CC000680130916901822793270E9403060895E5
:100CD0000895262F277091E001C0990F2A95EAF711
:100CE00023E0769567952A95E1F7660F771F660FE3
:100CF000771FFA01E60FF71F50E040E0682F70E021
:100D00008191DF0111979B01042E02C03695279532
:100D10000A94E2F7217021952827292328272C936C
:100D20004F5F5F4F4430510559F70895A82FA770C2
:100D300023E0969587952A95E1F7880F991F880FEC
:100D4000991FFB01E80FF91F50E040E080E021917E
:100D500030E00A2E02C0369527950A94E2F72170FA
:100D60003327042E01C0220F0A94EAF7822B4F5F2B
:100D70005F4F4430510559F70895262F9A3070F48B
:100D8000863060F4682F70E086E0989F600D711DDA
:100D9000112448E451E0822F0E9469060895292F0A
:100DA0009A3068F4863058F490E068E471E036E0F8
:100DB000239F800D911D11240E949606089580E0C6
:100DC0000895B0E0A0E0E7EEF6E00C945D217C0130
:100DD000009168011091690180916A0190916B0105
:100DE000082B192BCFE0D0E0CC24C394D12CBC2EFF
:100DF000C6010C2E02C0880F991F0A94E2F78023C7
:100E00009123892B49F4219790F7B12C8B2DCDB7E5
:100E1000DEB7E9E00C947921B7018C2F0E94A50D73
:100E2000019789F3F3CFCF93DF93EC010E94E106A2
:100E3000BE010E94A50DDF91CF9108951F93CF931E
:100E4000DF93EB0190914701992339F0CB010E9488
:100E50001307DF91CF911F910895882369F0CB018B
:100E60000E94E106182F682FCE010E94BD06BE0128
:100E7000812F0E94A50DEDCFCB010E94CF06182F28
:100E8000F6CF1F93CF93DF93C0916C0116E0809152
:100E90006D018C1304C0DF91CF911F910895D0E0B4
:100EA0001C9FF0011D9FF00D1124E259FE4F40815F
:100EB000518162817381848195810E94C905219647
:100EC000C770E5CF40919E0150919F016091A001B4
:100ED0007091A1018091A2019091A3010E94C90586
:100EE000089520916C0190916D0156E0291302C084
:100EF00080E0089530E0529FF001539FF00D1124DF
:100F0000E259FE4F7181761306C07081781303C0D9
:100F10007281741304C02F5F3F4F2770E7CF81E0C9
:100F200008951F93CF93DF938091A301807F09F0F1
:100F30004BC08091A001882309F446C080916C01C8
:100F4000C0916D0140919E0150919F016091A1015E
:100F50007091A201D42FD52316E0C817A9F190E013
:100F600061157105A9F1DF3F99F1189FF001199FF3
:100F7000F00D1124DF01A259BE4F11962C9111974B
:100F8000251326C02C91241323C012962C9112975E
:100F900021111EC013962D913C91261B370B283C26
:100FA0003105B0F48091A3018F7080618093A3011B
:100FB000ED58FE4F80818F70806180838EE991E0D3
:100FC0000E9458050E944107DF91CF911F9108951B
:100FD00001968770C2CFA1E1B0E0E1EFF7E00C9499
:100FE0005A218C0185E0F801DE011D9601900D92D9
:100FF0008A95E1F7F801F2808EE9A82E81E0B82EFB
:101000004091A1015091A2014115510509F45AC125
:1010100090919E0120919F01892F82238F3F09F497
:1010200051C1C080D18083809480E090A001B40140
:10103000641B750BEE2009F4F6C08091A301382FD4
:10104000307F683C710508F0AFC031117AC0EF2CD9
:101050002D1116C09C1114C0F11012C08F70806148
:101060008093A3010E946207C5010E9458058091E8
:10107000A301F80185838E2D6196ECE00C94762116
:1010800081149104C9F18C2D8D218F3FA9F181E04C
:101090008F2580FF05C04F2D6D2D8C2D0E9471076F
:1010A0008114910459F18C2D8D218F3F39F181E00C
:1010B0008F25F82FF170BF2E80FF39C04F2D6D2D79
:1010C0008C2D0E947107A82E811131C0CD86DE863D
:1010D0008D859E850E941307292F22952F7024301D
:1010E00078F49F702230A8F09923B9F0F801958127
:1010F000907F99F4EA2CBFCF80E0CBCF80E0D9CFAE
:101100002A5F2F70223068F0C8010E945805AB2C6E
:10111000F1CF992311F0882369F3805E883050F372
:10112000F3CF803F38F3815F833070F7E3CFFF2048
:1011300009F4A1CF8091A30181608093A301E12CE8
:101140009ACF2D1105C09C1103C0FF2009F486C061
:10115000C8010E94AC05882319F1FF2009F1809194
:10116000A301803270F020919E0130919F01388759
:101170002F8319869B868A868C87CE0107960E94CC
:10118000580586E0F801AEE9B1E001900D928A952C
:10119000E1F70E9491070E946207EE24E3946BCF6F
:1011A000C8010E945805F9CF311114C0782D998AD1
:1011B000888AA6016F2D89890E94BF058EE991E07A
:1011C0000E94580586E0F50111928A95E9F70E9480
:1011D0006207B5CF2D110EC09C110CC0F1100AC0D2
:1011E0008583C8010E94580586E0F50111928A9511
:1011F000E9F741CFC8010E94AC05882389F2FF209E
:1012000079F28091A301803208F4BBCF20919E0136
:1012100030919F013A8329831B829D828C828E8329
:10122000CE010196ACCF683C710508F03DC0EF2CB3
:10123000FF2009F4B5CF2D1129C09C1127C0809142
:10124000A30180FD1AC0982F907FB9F08583903F4D
:1012500031F0982F907F905F8F70892B8583C80124
:101260000E94580586E0F801AEE9B1E001900D92C8
:101270008A95E1F70E946207FECE86E0F801AEE9AA
:10128000B1E001900D928A95E1F7F5CEC8010E9478
:10129000AC05811176CF8091A30181608093A30179
:1012A000C8010E945805E7CE782D998A888AA60140
:1012B0006F2D89890E94BF0586E0F50111928A95FC
:1012C000E9F7D8CFFF2009F46BCFC8010E94AC0525
:1012D000E82E882309F464CF86E0F801AEE9B1E096
:1012E00001900D928A95E1F78EE991E00E94E50266
:1012F0000E949107BFCFACE0B0E0E1E8F9E00C94C8
:1013000063214F83588769877A878B879C87CE01B3
:1013100007960E94EB078823B1F08A859B85892B6D
:1013200039F04F815885842F85238F3F09F06CC099
:1013300016E080916C0190916D01891343C02C9649
:10134000E3E00C947F2186E0FE013796DE011196E2
:1013500001900D928A95E1F78A859B85892B41F34F
:101360008F81988589238F3F19F320916D0130E09B
:10137000C90101968770992740916C014817190699
:1013800071F40E948C0510926D0110926C0186E040
:10139000EEE9F1E0DF011D928A95E9F7C9CF96E009
:1013A000929FD001939FB00D1124A259BE4FFE0110
:1013B000319601900D929A95E1F780936D010E940C
:1013C0004107B6CF819FC001112482599E4F0E94D0
:1013D000EB07882309F4B3CFE0916C011E9FF00165
:1013E0001124E259FE4F40815181628173818481D1
:1013F00095810E94C90580916C0190E001968770EB
:10140000992780936C0195CF69857A858B859C851A
:101410000E94C9058DCF682F809100019091010134
:101420000E9492190895682F809100019091010106
:101430000E949519089580910001909101010E94E8
:10144000981908958091AC018595859585950895A5
:101450008091AC01877008959091AC01977081E004
:1014600009F480E008958091B70108959091B70143
:10147000892B8093B701089580959091B7019823A7
:101480009093B70108951092B70108959091B60115
:10149000892B8093B601089580959091B601982389
:1014A0009093B60108951092B60108958091AD0110
:1014B000089508950E94590A089590912F0292FF6D
:1014C00008C09091AD01981721F08093AD010E9462
:1014D0005A0A08958091AD01882329F01092AD0138
:1014E00080E00E945A0A0895CF93DF93E0910001B3
:1014F000F09101018091B7018083E0910001F091AA
:10150000010180819091B601892B80839091AD017A
:10151000992381F0E0910001F09101018081892BF4
:10152000808380910001909101010E944A198111EC
:101530000E946A0AC0910001D091010148E050E088
:1015400064EA71E0CE010E948B21892B59F088E07A
:10155000FE01A4EAB1E001900D928A95E1F7CE0177
:101560000E943F19DF91CF91089508950E94B50A16
:10157000089590912F0292FF11C098E0899F9001E9
:101580001124622B6093AC010E941B068091AC0178
:101590008595859585950E94B60A08950E941B063B
:1015A00008951092AC0180E00E94B60A08959091CF
:1015B000AC01809589238093AC01282F277091F48A
:1015C000282F082E000C330B9217130659F0909118
:1015D0002F0292FF07C08595859585950E942B0661
:1015E0000E94D10A089590912F0292FB222720F9A0
:1015F000281769F080FB92F990932F0280912E02B8
:1016000090912F020E943B0B82E00E94D70A08951E
:1016100080912F0282FB882780F991E089270E9420
:10162000F30A089581E00E94F30A089580E00E9481
:10163000F30A08956FEF7FEF90E080E00E94CD21E4
:10164000089590E080E00E94A92121E0873E9E4F0E
:1016500009F020E0822F089582E090E00E94A1210D
:10166000089583E090E00E94A121089584E090E035
:101670000E94A9210895BC0184E090E00E94CD2140
:101680000895AB01BC018FE090E00E94C121089554
:10169000AB01BC0183E190E00E94C121089560E0AC
:1016A00070E0CB010E94480B089560E070E0CB0130
:1016B0000E94410B0E944F0B089567EE7EEF90E071
:1016C00080E00E94CD2160E082E090E00E94AF21A6
:1016D00060E083E090E00E94AF2110926B011092D5
:1016E0006A0160E074E184E090E00E94CD2160E056
:1016F00086E090E00E94AF216FEF87E090E00E94CB
:10170000AF2140E050E0BA0188E090E00E94C121A2
:1017100060E08DE090E00E94AF2140E050E0BA012F
:1017200088E190E00E94C12160E087E190E00E94A2
:10173000AF2140E050E0BA018CE190E00E94C1216D
:1017400070E060E080E290E00E94CD2140E050E057
:10175000BA0188E190E00E94C1210E94550B0895D2
:101760000E945D0B0895682F8EE090E00E94AF21EB
:101770000895A5E0B0E0EFEBFBE00C9462210E943D
:10178000441A8C018091B8019091B901801791079A
:10179000A1F08FEF89838A831B820E94441A8160A3
:1017A000782F9D838C8349815A816B818D810E9422
:1017B000B0021093B9010093B8012596E4E00C94AF
:1017C0007E210E94501A6093C8017093C9018093D2
:1017D000CA019093CB016093C4017093C5018093BB
:1017E000C6019093C7010895089508950E94F50BCE
:1017F000089508950E94F90B089581E008958FECF3
:101800009EE00E9421190E94F40B0E94F60B08959D
:101810000E949B100895089508950E940B0C0E9449
:101820000C0C08950E94D20E0E94840208950E941A
:101830003B1A0E948F0E0E94B6100E94FC0F0E945D
:10184000120C0E94AC1280E00E9407130E94C0108C
:101850000E94FA0B0895A5E0B0E0E1E3FCE00C94EF
:101860005B210E94FD0BC82E811110C00E94B90B94
:10187000C12C0E949B100E949314C1100E946613F9
:101880000E9497022596EBE00C9477210E941F108E
:101890008AEBA82E81E0B82E750110E0F7010191C6
:1018A0007F01812F0E94F80E1F5F1A3009F440C09B
:1018B0000817A1F38091CC0181FD0E94FE0E0E94C9
:1018C000080C982E10E0812F0E94F80E082FF501C9
:1018D00081915F01081731F1F12CEE24E394D02EB1
:1018E000D8268D2D8E21B1F09920A1F0F9821A838E
:1018F00091E0802F8E2109F490E09B830E94441A8E
:101900008160782F9D838C8349815A816B818D8181
:101910000E94B002F394EE0CF6E0FF12E2CFF50164
:10192000319700831F5F1A3071F60E94E10BA1CF3F
:101930000813C0CF9BCF1F93CF93DF930E94AA0DB4
:10194000EC01C11582E5D80708F03FC0C11590E54C
:10195000D90708F0C2C0C83ED105C0F4C03ED105C9
:1019600080F4C53AD10548F4C430D10550F4C130F3
:10197000D10539F0D0E0C0E004C0CD3CD105D0F3B2
:10198000D065CE01DF91CF911F910895C11580E4FC
:10199000D80708F053C0C11590E2D90708F0B7C0C6
:1019A000C11581E0D80730F38D2F0E944C0E182FFF
:1019B000CE0199270E94AA0DC12FD0E0DC2FCC27A1
:1019C000CC27DF71C82BD92BDCCFC03892E5D907E3
:1019D000A8F4C03682E5D80708F063C0C03492E5A9
:1019E000D90708F049C0C03282E5D80788F1CF7125
:1019F000D0E0DC2FCC27C16FD06AC3CFC03C92E5CA
:101A0000D90780F48C2F8F71C03AD24508F45EC09C
:101A10000E944C0EC82FD0E0DC2FCC27CC27DF71E2
:101A2000D062AFCFC03E82E5D80708F0A3CFDC2F4D
:101A3000CC27CC27DF71C06FD06AA3CFCE01992706
:101A40000E94AA0DCC27DF70C82BD92BD06A99CF62
:101A50002C2F2695269590E2299F900111248C2FFA
:101A60008370C1E0D0E002C0CC0FDD1F8A95E2F7A1
:101A7000C22BD32BDD6885CF2C2F2695269527707A
:101A800080E2289F900111248C2F8370C1E0D0E068
:101A900002C0CC0FDD1F8A95E2F7C22BD32BDC6886
:101AA00070CF2C2F26952695277090E2299F9001C4
:101AB00011248C2F8370C1E0D0E002C0CC0FDD1F59
:101AC0008A95E2F7C22BD32BDA685BCFC82FD0E020
:101AD000DC2FCC27C46FD06A54CF8C2F8F710E941B
:101AE0004C0E55E0D695C7955A95E1F7CF70D0E0EA
:101AF000DC2FCC27282F30E084FF05C044E0220FE4
:101B0000331F4A95E1F7C22BD32BD0693ACF8D2FE3
:101B10008F710E944C0E182FCE0199270E94AA0D9A
:101B2000C12FD0E0DC2FCC27CC27DF71C82BD92BDD
:101B300077CF462F7A3030F4663020F4672F0E943A
:101B4000A401089590E080E008950E94990D0E94FC
:101B50009B0C089582389105B9F1B0F48133910559
:101B600009F47DC048F48932910509F46DC08A32C8
:101B7000910509F47BC008958533910509F45FC090
:101B80008933910509F10895833E9105D9F138F41F
:101B9000803E910529F1823E910579F10895863EB6
:101BA0009105D9F1873E910509F43EC0843E910527
:101BB00041F520912F0221FF24C080912E0284FD47
:101BC00019C087EE90E0089520912E02237009F04D
:101BD0005AC020912F0223FF14C089E290E008959B
:101BE00020912E0220FD38C030912F0230FF09C015
:101BF00024FF43C090E080E0089520912E0222FD52
:101C0000F7CF089520912E0222FD3AC030912F0285
:101C100030FD39C024FFF5CFEDCF20912E0223FFF8
:101C2000F0CF24FDE7CFCDCF20912E0223FD2EC093
:101C300030912F0231FFEECF84EE90E00895209195
:101C40002E0225FFDECFC9CF20912E0225FD21C017
:101C500020912F0223FFD5CF89E390E0D2CF2091AE
:101C60002E0226FFCECF8AE290E0089520912E0228
:101C700026FFC7CF81E390E0089583EE90E00895BA
:101C800082EE90E0089580EE90E0089586EE90E078
:101C9000089585E390E0089590912E0292FF06C08A
:101CA000282F28712830F9F4877F846093FF06C0BD
:101CB000282F28712831F1F4877E846120912F022A
:101CC00020FF06C0382F38713830D9F4877F816003
:101CD00021FF06C0282F28712831D1F4877E816129
:101CE00094FD877E0895282F24712430F9F68B7F88
:101CF0008860DCCF282F2471243101F78B7E886126
:101D0000DDCF382F3171313019F78E7F8860E0CF09
:101D1000282F2171213121F78E7E8861E1CF109229
:101D20002A0210922B0210922C0210922D0208957A
:101D3000CF92DF92EF92FF926B017C010E949B1089
:101D400081110EC00E94501AC61AD70AE80AF90A71
:101D5000C0922A02D0922B02E0922C02F0922D0225
:101D6000FF90EF90DF90CF9008950F931F930E9404
:101D70009B10882329F00E94501A1F910F910895FB
:101D80000E94501A00912A0210912B0220912C02DD
:101D900030912D02600F711F821F931FEECF80E0E4
:101DA000089508950E94210B811102C00E94B00B7A
:101DB0000E942C0B8093CC010E94360B90932F0233
:101DC00080932E020E94D10E0E94310B90E00E945F
:101DD000DF0580916801909169010E9400060895D5
:101DE00008950E94F00E089508950E94F40E08953B
:101DF000E82FF0E0E55CFD4F80810895089580EACA
:101E00008A95F1F7089500C008950E94FF0E089585
:101E100008950E94080F0895A5E0B0E0E2E1FFE018
:101E20000C9460210E949B10F82E6091450288233B
:101E300009F440C085E0E82E8E010F5F1F4FF801C6
:101E40008E2D11928A95E9F7862F90E0B801855C76
:101E50009D4F0E94CE108823B9F08091300290E00F
:101E600045E050E0B801855C9D4F0E948B2121E048
:101E70002093CD01892B91F4F12C0E94F50E8F2D2A
:101E80002596E6E00C947C218091CD018823A1F376
:101E9000F8011192EA94E9F71092CD01A091300275
:101EA000B0E0A55CBD4F85E0F80101900D928A95E8
:101EB000E1F7E3CF70E0655C7D4F8091300290E008
:101EC000855C9D4F0E9455110E94090FD8CFF89450
:101ED000E82FE295EF70F0E031A1282F2F7081E01C
:101EE00090E001C0880F2A95EAF7982F90959323E8
:101EF00091A392A1892B82A3789408950F931F93A5
:101F0000CF93DF93C1E3D1E089918F3F11F00E941D
:101F1000670F81E0C633D807B9F7CBE2D1E001E320
:101F200011E089918F3F11F00E94670F0C171D0778
:101F3000C1F7DF91CF911F910F910895B0E0A0E01C
:101F4000E4EAFFE00C945E21EC01D62E062F10E0AF
:101F5000C8018F5C9E4F7C01FC0180818F3F09F49A
:101F600044C0F894E82FE295EF70F0E091A18F70F3
:101F700021E030E001C0220F8A95EAF7892F822BF9
:101F800081A382A12095282322A378940E94030F85
:101F9000EBE2F1E031E0C12C21912F3F59F1A22F6A
:101FA000A295AF70B0E090968C9190E02F7002C037
:101FB000959587952A95E2F780FD1CC0832FC82A46
:101FC000330F81E0E133F80739F7F70180818F3F64
:101FD00011F00E94670F61E0C11001C060E08D2D1B
:101FE0000E94050FC00FD11FC882CDB7DEB7E8E051
:101FF0000C947A2180E0E3CF80910201809102016C
:1020000095E0811190E09093450285E0891B8093D3
:1020100030020E947E0F8AE0EBE3F2E0DF01982FAE
:102020001D929A95E9F7E1E3F2E0DF011D928A95AE
:10203000E9F785E00E945D100E94F10E0895AAE084
:10204000B0E0E5E2F0E10C9461218E010F5F1F4FDB
:102050008AE0F80111928A95E9F7F12C6F2DC801F9
:102060000E949E0FF394F5E0FF12F8CF4AE050E093
:10207000B80181E392E00E948B2121E0009709F4EE
:1020800020E0892B41F08AE0F801A1E3B2E0019061
:102090000D928A95E1F76091450270E0655C7D4F95
:1020A00045E081E392E00E945E10182F0E940C0F21
:1020B000812B2A96E5E00C947D210895CF92DF9242
:1020C000EF92FF920F931F93CF936C017B01042F2C
:1020D000222349F081E08093D0010E94441A90931A
:1020E000CF018093CE01C091D001C1110AC0C0E0E0
:1020F0008C2FCF911F910F91FF90EF90DF90CF9099
:1021000008958091CE019091CF010E945C1A0597AD
:1021100070F310E0A801B601C7010E948B21892B42
:1021200041F0A801B601C7010E9498211092D00188
:10213000DFCFC0E0FBCF8091D301811107C00E94A7
:102140002D21882351F081E08093D30181E090918B
:10215000D301913009F080E0089582E08093D301AB
:102160000E942821F3CF0E949B1008950E94B31073
:10217000809302010E949B1081110E940411089516
:102180000E949B10811102C00E940711089581E0F6
:102190009091D4019A3008F080E008950F931F9336
:1021A000CF93DF93EC018B018091D4018A30B8F496
:1021B000B801CE010E945211C82F811122C0809116
:1021C000D4018F3FB9F40E94441A9093D2018093B6
:1021D000D1018C2FDF91CF911F910F9108958091A4
:1021E000D1019091D2010E945C1A843F914000F786
:1021F000C0E0EFCF8F5F8093D4018A3020F7C1E039
:10220000E8CF1092D401E5CF0E94BF1708950E9435
:10221000C2170895B0E0A0E0E0E1F1E10C945F2185
:102220007901C82F880FDD0B41155105A9F0FE017A
:1022300093E0EE0FFF1F9A95E1F7ED5FFE4F81816E
:1022400092818B529E4F208130E04217530708F451
:102250009A01A9010E949821CE010E94AB18D82EA4
:102260008823D1F001151105B9F083E0CC0FDD1FF3
:102270008A95E1F7FE01ED5FFE4F438150E00417C0
:10228000150708F4A801CD5FDE4F6C817D816B528C
:102290007E4FC7010E9498218D2DCDB7DEB7E7E0B4
:1022A0000C947B210E94441208950E945B120895B1
:1022B000A4E0B0E0EEE5F1E10C9462216091EC0164
:1022C0007091ED018091EE019091EF010E946B1AE7
:1022D00011E0643671058105910518F10E94B50E73
:1022E0006E5F7F4F8F4F9F4F69837A838B839C8371
:1022F00010E000E030E020E044E050E0BE016F5F1D
:102300007F4F82E00E940A11182F882351F00E940B
:10231000501A6093EC017093ED018093EE0190935D
:10232000EF01812F2496E4E00C947E21B0E0A0E040
:10233000ECE9F1E10C945C217C015B016A010E94F3
:10234000C71001E010E0882311F00AE010E0C1E0BE
:10235000D0E0B501C701F6010995811104C02196AD
:102360000C171D072CF4CDB7DEB7EAE00C947821EA
:10237000CC9F9001CD9F300D300D112490E080E076
:1023800045E34A95F1F70000019682179307C1F7DC
:10239000E0CFA6E0B0E0EFECF1E10C945C217B0132
:1023A000C0903601D090370101E010E09E012A5F15
:1023B0003F4F50E040E070E060E080E00E940A1192
:1023C000182F882309F448C056018FEFA81AB80ABD
:1023D0006091E8017091E9018091EA019091EB012F
:1023E0000E946B1A643671058105910568F105E05C
:1023F00010E09E012F5F3F4F50E040E070E060E052
:1024000081E00E940A11D82E65E070E0C5010E94AB
:10241000AD1211E09E81981310E01D2141F10E9440
:10242000501A6093E8017093E9018093EA01909358
:10243000EB0185E0FE013196A3EEB1E001900D9233
:102440008A95E1F711E013C065E070E0C5010E94D4
:10245000AD129E818913CBCF85E0F6013196DE0166
:10246000119601900D928A95E1F71111E2CF85E066
:10247000E3EEF1E0D70101900D928A95E1F7812F0B
:102480002696EAE00C9478210F931F93CF93DF9365
:10249000EC018B0149EC51E10E949611882331F047
:1024A00048E551E1B801CE010E949611DF91CF912C
:1024B0001F910F9108950F931F93CF93DF93C091B6
:1024C0003601D0913701CE01019625E0FB01DC01F8
:1024D00001900D922A95E1F765E070E00E94AD123F
:1024E00088836E817F81888599850091DF011091B5
:1024F000E0012091E1013091E2016017710782074C
:10250000930751F06093DF017093E0018093E10144
:102510009093E2010E94980EDF91CF911F910F914D
:1025200008950E94101C0E94170C0E941D1C089503
:102530000E94221C0E942B0C0E943C1C08950E94A9
:10254000DD190E94F61B0E94FF0B0E9491120E944F
:1025500098120E940D0CFBCF0895FC01680F791FA3
:102560008FEF91E3E617F70709F408952191822789
:1025700028E030E087FF06C0880F89272150310905
:10258000C9F7F0CF880FFACFB0E0A0E0EAECF2E1B3
:102590000C945E216C017B0164E670E088E70E9488
:1025A0007F16EC0197FD12C010E000E0F601E00F8D
:1025B000F11F849164E670E00E94EB16EC01892B18
:1025C00029F40F5F1F4F0E151F0581F70E94611739
:1025D000CE01CDB7DEB7E8E00C947A2108950E94D1
:1025E000EE120895E6E4F2E080E092E0DF019C0163
:1025F0001D9221503040E1F7F0934D04E0934C04DC
:102600008FEF9FEF909316028093150208950E941A
:10261000EE120E94EF128093110280FD0FC080E83D
:10262000809310020E9479166DE070E08BE292E0D8
:102630000E94C412892B21F080E0089580E2F0CF3F
:102640008091110263E070E081FD26C088E292E093
:102650000E94C412892B81F76DE070E088E192E05E
:102660000E94C412892B41F70E94501A605A75418A
:102670008F4F9F4F609348047093490480934A049E
:1026800090934B040E94F21281E080931402809395
:10269000130210921202089585E292E0D9CF2091A0
:1026A000100236E0839FC0011124629F800D911DAE
:1026B0001124811522E0920714F090E080E08A5BFB
:1026C0009D4F90934D0480934C0408958091140283
:1026D000811103C08091130208950E94501A605A1C
:1026E00075418F4F9F4F60934804709349048093C6
:1026F0004A0490934B04809113028111EBCF62E066
:1027000070E086E192E00E94C412892B19F781E003
:1027100080931302DFCFB0E0A0E0E1E9F3E10C9495
:1027200058218091150290911602892B09F4BDC0A1
:1027300080911402882309F4B8C08091120281119B
:10274000B4C00E9466132091150230911602211523
:10275000310509F4AAC080E041E050E0082F10E004
:10276000EA01082E02C0CC0FDD1F0A94E2F7BE0179
:1027700062237323672B11F48F5FF0CF90911102C6
:1027800090FF98C0880F880F880F80931D011092CA
:102790002001895F80931E0183E08093210124E65C
:1027A00030E047E050E06BE171E088E70E941917E4
:1027B000892B09F07AC0A80125E0440F551F2A95FE
:1027C000E1F78091110280FF87C0E0EFF1E080E245
:1027D000DF011D928A95E9F70CE311E088E3E82E0A
:1027E00081E0F82E97E0992E88248394D801ED910A
:1027F0008D01D7016D917D01640F752F711D6A5B8D
:102800007D4FF0E0E051FE4F30E020E0792C721A6D
:10281000A82C022E01C0AA0C0A94EAF76B0190E0E2
:10282000D6018D916D018A21A72DA91BA770BA2E03
:102830000A2E000CBB0B682E01C0660CBA94EAF796
:10284000B62CB195A195B109A770BB2701C086959B
:10285000AA95EAF7A62DA82B80818A2B80839F5FFB
:102860009830F1F62F5F3F4F31962830310571F6E1
:1028700081E00034180709F0B9CF04E610E020E247
:1028800030E040EF51E060E488E70E943A17892B7E
:1028900061F4C095D0958091150290911602C823DD
:1028A000D923D0931602C0931502CDB7DEB7EEE060
:1028B0000C9474218295880F807680931D01980175
:1028C000369527953695279520932001815E809334
:1028D0001E011092210163CF4A5B5D4F04E610E0B8
:1028E00020E230E0D0CF8091130290911402911138
:1028F00003C091E089270895882369F062E070E0C1
:1029000084E192E00E94C412892B19F08091130295
:1029100008951092130280911302EBCF81E0089585
:102920000E948E1408950F931F93809114028823A0
:1029300079F180914604909147040E945C1AC297F5
:1029400060F00E94441A909347048093460460E02C
:1029500080E00E944F130E9490140E948B1380917C
:1029600013028823A9F00E94501A00914804109184
:10297000490420914A0430914B04601B710B820B77
:10298000930B6F3F7F4F8F4F9F4710F40E9473143C
:102990001F910F910895CF93DF93EC01FB0182818A
:1029A000882309F4D2C09E0130572332310508F044
:1029B000B2C00E94360B90932F0280932E02FE012C
:1029C000E150F047E232F10520F4EF50FE4D0C9457
:1029D0004E2180912E02816080932E0293C08091BF
:1029E0002F02886080932F028DC080912E0282601A
:1029F000F3CF80912E028460EFCF80912E02886009
:102A0000EBCF80912F028160EDCF80912F02826009
:102A1000E9CF80912E028061DFCF80912E0280620B
:102A2000DBCF80912E028064D7CF0E948C058091ED
:102A30002E028068D1CF80912E028C60CDCF809104
:102A40002F028360CFCF80912E028E7FC5CF8091E1
:102A50002F02877FC7CF80912E028D7FBDCF8091BF
:102A60002E028B7FB9CF80912E02877FB5CF8091C8
:102A70002F028E7FB7CF80912F028D7FB3CF8091B1
:102A80002E028F7EA9CF80912E028F7DA5CF8091BF
:102A90002E028F7BA1CF0E948C0580912E028F7712
:102AA0009BCF80912E02837F97CF80912F028C7FC6
:102AB00099CF80912E0282FB992790F921E09227ED
:102AC00090FB82F990FB83F987CF80912F02982F9A
:102AD000909591708E7F892B90FB81F983CF909197
:102AE0002E02892F8F7B96FF806476CF0E948C0503
:102AF00090912E02892F97FB87F980586DCF81E046
:102B00000E94B30B80912E0290912F020E943B0BEA
:102B10000E948C0580E0DF91CF91089580E0F0CF96
:102B200090912E02892F8F7E94FF806155CF9091D6
:102B30002E02892F8E7F90FF81604ECF90912F02C1
:102B4000892F877F93FF88604DCF81E0E4CFCF93BB
:102B5000DF93EB0186319C4711F50E94330A9A817D
:102B6000992399F08A7A91E009F490E09093170202
:102B7000811109C089E20E940B0A0E94740A80E058
:102B8000DF91CF91089585E3F6CF809117028111EF
:102B900004C089E20E94130AF0CF85E3FBCF81E0F5
:102BA000EFCF0F931F93CF93DF93C42FD22FFC014E
:102BB00082818823C9F040931A020E94441A90939C
:102BC00019028093180280E28C0F883040F4C7709D
:102BD00081E001C0880FCA95EAF70E944F03DF9198
:102BE000CF911F910F91089510911A02141332C0C2
:102BF00080911802909119020E945C1A883C9105FC
:102C000048F5C0E2CD0F1D17B9F080E2810F883082
:102C100040F4177081E001C0880F1A95EAF70E940E
:102C20005603C83048F481E09D2F977001C0880F8B
:102C30009A95EAF70E944F03802F0E944603C830FE
:102C400070F6D77081E001C0880FDA95EAF70E942C
:102C50005603C5CF80E28C0F883008F6C77081E03C
:102C600001C0880FCA95EAF7F2CF0F93DB018851B4
:102C70009C4787309105A0F5FC01ED5EFD4D0C945D
:102C80004E2106E221EE41EE6AE17CE7CD010E9491
:102C9000D11580E00F91089507E225EE45EE6BE136
:102CA0007CE7F4CF06E221EE40EE68E17CE7EECF70
:102CB00007E225EE44EE69E17CE7E8CF06E221EE8B
:102CC00042EE6CE17CE7E2CF07E225EE46EE6DE1F5
:102CD0007CE7DCCF08E221E045EE6EE17CE7D6CF71
:102CE00012968C91882319F010921A02D3CF81E0AA
:102CF000D1CF1092B9008CE08093B8000895B0E075
:102D0000A0E0E5E8F6E10C945B21B82EEB010E940F
:102D1000441A6C01EE24E394F12CC431D10560F027
:102D200025E0E22EF12CCF3FDC0731F0CE0164E14B
:102D300070E00E943A217B0184EAA82E94E8992E43
:102D40001092BC00A092BC000E94441A8C01809199
:102D5000BC0087FF0DC08091B900887F8830F9F0F2
:102D60008091B900887F8031D1F00FEF1FEF08C04C
:102D7000C8010E945C1AE816F90648F70EEF1FEF2B
:102D8000CF3FDC07E9F2C6010E945C1AC817D907D9
:102D9000B8F6C801CDB7DEB7EBE00C947721B0925E
:102DA000BB009092BC000E94441A8C018091BC0030
:102DB00087FF0AC08091B900887F883111F0803484
:102DC000A1F610E000E0E5CFC8010E945C1AE81609
:102DD000F90660F7D3CF0F931F93CF93DF93EB01E7
:102DE0008093BB0084E88093BC000E94441A8C014D
:102DF0008091BC0087FF11C02091B900287F81E03D
:102E000090E0283211F490E080E09195819591094D
:102E1000DF91CF911F910F910895CF3FDC0741F3D0
:102E2000C8010E945C1AC817D90710F78EEF9FEFF0
:102E3000EFCFB0E0A0E0EFE1F7E10C945E216B0191
:102E40008A017901B9010E947F16E6010C0D1D1D52
:102E5000C017D10711F097FF08C024E92093BC00E8
:102E6000CDB7DEB7E8E00C947A21B70189910E94D2
:102E7000EB16EECFB0E0A0E0E0E4F7E10C945E21C9
:102E8000C62F6A017901B8010E947F1697FD0CC018
:102E9000B8018C2F0E94EB16E601EC0CFD1CCE1540
:102EA000DF0511F097FF08C024E92093BC00CDB7DF
:102EB000DEB7E8E00C947A21B80189910E94EB1604
:102EC000EECF84E98093BC0008958EE14A9B02C056
:102ED0008150E1F74A9BFECF08955A9880E28A9587
:102EE000F1F75A9A0895FC013BE03A95F1F798E022
:102EF00020E080E031E040E14A95F1F7880F4A9BFD
:102F000002C08160232742E04A95F1F7000040E1CA
:102F10004A95F1F7915079F790E19A95F1F799B1C7
:102F200032E03A95F1F7000040E14A95F1F792FB63
:102F3000992790F992272081920F90830895A1E01C
:102F4000B0E0E5EAF7E10C94602119828C017C0184
:102F5000E60EF11C0E151F0541F481E099819111D7
:102F600080E02196E6E00C947C210E946517CE015A
:102F700001960E947317F80181938F01EBCF529A4B
:102F80005A9A089552985A9AEA9AE9E6F0E08081AE
:102F90008F7C808308956150770B91E001C0990F79
:102FA0006A95EAF720E031E0911108C0222391F000
:102FB0005A9A80E28A95F1F75A980895492F482342
:102FC00039F05A9A232740E24A95F1F79695ECCFCB
:102FD0005A98F9CF5A98EDCFFF920F931F93CF9342
:102FE000DF93EC018C01060F111DC017D10729F4E6
:102FF000CDB7DEB7E5E00C947D21F9900E946D1706
:1030000068E08F2D0E94CB17F0CF1F920F920FB662
:103010000F9211240F931F932F933F934F935F931E
:103020006F937F938F939F93AF93BF93EF93FF9390
:10303000CF93DF930F92CDB7DEB719820E94651749
:10304000CE0101960E947317082F069506950695E6
:10305000282F22952570902F9570290F922F93700D
:1030600026952695920F982797708981982B09F0BD
:103070005CC0043008F059C080E18A95F1F75A9A93
:10308000529A82E08A95F1F700C05A9888E0089F2A
:1030900080011124D801AD5FBE4F1696ED91FC91D1
:1030A00017973097A9F06091360170913701149607
:1030B0002D913C911597260F371F11968D919C915C
:1030C0001297680F791F13964C9113978C9109955D
:1030D000F801ED5FFE4F6381662351F020913601C8
:1030E0003091370184819581820F931F0E94EC17E4
:1030F0000E946D1780E18A95F1F75A9852985A9A72
:1031000080E18A95F1F7F801ED5FFE4F608166235B
:1031100051F0209136013091370181819281820FE7
:10312000931F0E949F170E9465170F90DF91CF9108
:10313000FF91EF91BF91AF919F918F917F916F918F
:103140005F914F913F912F911F910F910F900FBE63
:103150000F901F9018950F931F93CF93DF93EC015F
:1031600004970CF04CC0F894529A5A9885E08A95CE
:10317000F1F700009C2F969595708C2F8570980F15
:10318000892F83709695969523E0CC0FDD1F2A95A5
:10319000E1F7980F8E01092B0E946D1700C068E0BF
:1031A000802F0E94CB1780E18A95F1F752985A9AA6
:1031B0004A9B1EC087E090E04A991CC0FE01ED5F6B
:1031C000FE4F63816623F9F020913601309137017B
:1031D00084819581820F931F0E949F17811113C0D4
:1031E000529A5A9A7894DF91CF911F910F91089536
:1031F00000C0DECF019729F4529A5A9A789480E061
:10320000F2CF00C0D9CF0E94651780E28A95F1F70E
:103210005A98529A80E18A95F1F7CD5FDE4F688126
:10322000662351F0209136013091370189819A81CE
:10323000820F931F0E94EC170E946D17789481E013
:10324000D2CF9093410180934001089590931D0245
:1032500080931C0208950E949B10811103C08091ED
:103260001B020895E0911C02F0911D02309729F095
:103270000190F081E02D0995089580E00895E09196
:103280001C02F0911D02309721F00280F381E02DA5
:10329000099508959C012E5F3F4FAC01485F5F4F39
:1032A00080E02417350709F40895F90191919F01F1
:1032B0009923B9F38F5FF5CF662349F0FC0132966D
:1032C00008962191261729F0E817F907D1F780E031
:1032D000089581E008959C01FC0132969FEF80E003
:1032E0004191461751F09F3F19F4411101C0982FA9
:1032F0008F5F8630A9F79F3F09F40895290F311D8C
:1033000097FD3A95F90162830895FC01329608967B
:103310002191261303C0DF0111971C92E817F907CA
:10332000B9F708950E946B1908950E9485190895B0
:10333000029626E0FC0111922A95E9F70895089576
:103340000E949F190895811106C081E080931E029A
:103350000E94A019089582E0F9CF83E080931E02B5
:103360000E94A01908950E94A319089581E08093F6
:103370001E020E94A01908950E94B619089508958A
:1033800008950E94C0190895089508950E94BF19D4
:103390000895CF930E94C4190E941F100E94C5195E
:1033A000C0E08C2F0E94F80E811105C0CF5FCA309B
:1033B000C1F7CF91089581E0FCCF85B7806885BFC4
:1033C00085B7806885BF08951F921FB61F9211248C
:1033D0008F939F93AF93BF9380911F02811113C06E
:1033E00080914E0490914F04A0915004B0915104EB
:1033F0004196A11DB11D80934E0490934F04A0935C
:103400005004B0935104BF91AF919F918F911F9041
:103410001FBE1F90189580915604843031F10E9490
:10342000650210921F0288E190E020E40FB6F89444
:10343000A895809360000FBE2093600083B7817FC2
:10344000846083BF83B7816083BF7894889583B796
:103450008E7F83BF0FB6F894A89580916000886135
:1034600080936000109260000FBE08950E948C054A
:103470000E946C02089582E084BD93E095BD9AEFAE
:1034800097BD80936E0008952FB7F89480914E04F5
:1034900090914F04A0915004B09151042FBF089512
:1034A0002FB7F89460914E0470914F0480915004AE
:1034B000909151042FBF08959C014FB7F8948091CB
:1034C0004E0490914F04A0915004B09151044FBF0D
:1034D000821B930B0895CF92DF92EF92FF922FB74A
:1034E000F894C0904E04D0904F04E0905004F090B7
:1034F00051042FBFA7019601261B370B480B590B10
:10350000CA01B901FF90EF90DF90CF9008957894B1
:103510001F921FB61F9211248F939F93AF93BF9357
:1035200080914E0490914F04A0915004B0915104A9
:103530000196A11DB11D80934E0490934F04A0935A
:103540005004B0935104BF91AF919F918F911F9000
:103550001FBE1F90189587E797E790930108809307
:10356000000888E19AE00FB6F894A895809360006F
:103570000FBE90936000FFCF88E19AE00FB6F894F9
:10358000A895809360000FBE90936000FFCF80915C
:1035900028020895089508959B01BA019091560458
:1035A0009430E9F48F708093E9009FEF8091E800F8
:1035B000915085FD06C085ED8A95F1F700009111C7
:1035C000F5CF8091E80085FF0AC050E040E0C901D6
:1035D0000E94A11C8091E8008E778093E8000895F6
:1035E000CF93DF93EC0148E050E0BC0181E00E9402
:1035F000CC1A88E0FE01A0E2B2E001900D928A951B
:10360000E1F7DF91CF91089580915504811109C0B0
:103610000E94311E0E948E1E8091E2008460809381
:10362000E20008951092550408950E94B619089575
:103630006091520481E0611101C080E00E94AD19E7
:1036400008959091560481E0943009F080E06091F3
:1036500052040E94B319089542E061EC81E00E9497
:10366000AD1D9091560481E0943009F080E06091A6
:1036700052040E94A319089580915804833009F4DC
:1036800061C030F48130D1F1823009F49EC00895D8
:103690008A3009F48AC08B3009F46FC0893009F090
:1036A00050C080915704813209F04BC080915B0477
:1036B00090915C04892B09F044C08091E800877FD9
:1036C0008093E8008091E80082FF37C09091F3007A
:1036D0008091F200029731F48091F100813011F075
:1036E000863021F48091F100809328028091E800D7
:1036F0008B778093E8000E94E11D23C080915704DE
:10370000813AF9F48091E800877F8093E800809106
:103710005B0490915C04892B61F468E080E292E0A4
:1037200070E00E94F01C8091E8008B778093E800A5
:10373000089560E090E080E0F3CF8091560481111D
:10374000C1CF089580915704813AD9F780915B04E5
:1037500090915C04892BA9F78091E800877F809382
:10376000E8008091E80080FFFCCF80912A018093DF
:10377000F1008091E8008E77BCCF809157048132B0
:1037800001F780915B0490915C04892BD1F68091C4
:10379000E800877F8093E8000E94E11D8091590432
:1037A00080932A010E948C050895809157048132EC
:1037B00041F68091E800877F8093E8000E94E11D38
:1037C00080915A0480932902089580915704813A88
:1037D00009F0B7CF8091E800877F8093E80080915F
:1037E000E80080FFFCCF80912902C1CF84B7877F9A
:1037F00084BF0FB6F894A89580916000886180938B
:103800006000109260000FBE80E890E00FB6F89460
:1038100080936100909361000FBE0E94BC190895CF
:103820000E94311E0E948E1EE2EEF0E080818460D4
:10383000808378940E940D21089582E291E00E9495
:103840002619089580915604853031F480915604EC
:10385000853019F00E94361A08950E940B1A809143
:103860005404882399F30E94C919882379F30E948C
:103870008B1C0E948C05EACF08959A0140915D044B
:1038800050915E040E94451C0895492F55274330EE
:103890005105C9F058F44130510599F142305105B4
:1038A000A9F190E080E050E040E01DC041325105B8
:1038B00009F142325105A9F780E490E042E952E073
:1038C000672B79F710C099278130910581F0009717
:1038D00029F0029731F7E8E3F2E002C0EAE5F2E00E
:1038E000849190E0AF01F901518340830895E8E4A9
:1038F000F2E0F6CF89E090E040E752E0672B89F6EE
:10390000F2CF82E190E040E852E0EDCF82E290E039
:103910004EE552E0E8CF80E189BD82E189BD09B47E
:1039200000FEFDCF8091D8008F7D8093D8008091DC
:10393000E00082608093E0008091E00081FDFCCF98
:103940000895AF92BF92CF92DF92FF920F931F9391
:10395000CF93DF936C01EB018A010E94001EF82EC9
:10396000811123C00115110539F0F8018081918181
:10397000C81BD90BC80ED91EB12CA12C2097A9F0B9
:103980008091E80085FD22C08091E8008E778093C9
:10399000E80001151105A1F0F80180819181A80EC0
:1039A000B91EB182A08285E0F82E8F2DDF91CF91D4
:1039B0001F910F91FF90DF90CF90BF90AF9008952F
:1039C0000E94001E8823D1F2F82EEFCFF6018191DC
:1039D0006F018093F1002197FFEFAF1ABF0ACECF9E
:1039E000FC0180915D0490915E0486179707A0F01A
:1039F0006115710529F49091E8009E779093E80095
:103A000090E06115710551F4911108C08091E800B2
:103A100082FF34C080E00895BC01F2CF809156044B
:103A20008823C1F18530C1F18091E80083FD30C069
:103A30008091E80082FDEACF8091E80080FFE1CF2D
:103A40008091F3002091F200382F6115710519F073
:103A50002830310558F091E02830310509F090E028
:103A60002091E8002E772093E800CBCF81918093BE
:103A7000F100615071092F5F3F4FE7CF80915604ED
:103A8000882341F0853041F08091E80083FFBECF6C
:103A900081E0089582E0089583E00895FC0180911B
:103AA0005D0490915E0486179707A0F0611571057B
:103AB00029F48091E8008E778093E80090E061150A
:103AC000710551F4911108C08091E80082FF35C062
:103AD00080E00895BC01F2CF809156048823C9F19B
:103AE0008530C9F18091E80083FD31C08091E80004
:103AF00082FDEACF8091E80080FFE1CF8091F30062
:103B00002091F200382F6115710519F02830310528
:103B100058F091E02830310509F090E08091E800FC
:103B20008E778093E800CBCF84918093F10031961B
:103B3000615071092F5F3F4FE6CF80915604882373
:103B400041F0853041F08091E80083FFBDCF81E0F6
:103B5000089582E0089583E00895982F973028F023
:103B60008F708093E90081E008959093E900242FFD
:103B7000762F50E0981731F07091EC002091ED0015
:103B80005091F00021FD02C09F5FE8CF3091EB0023
:103B90003E7F3093EB003091ED003D7F3093ED00A0
:103BA0003091EB0031603093EB007093EC00209388
:103BB000ED005093F0002091EE0027FDE5CF80E06E
:103BC00008958091570487FF13C08091E80082FF19
:103BD00006C08091E8008B778093E80004C0809154
:103BE00056048111F2CF0895809156048823D9F3A9
:103BF0008091E80080FFF8CF8091E8008E77ECCFCD
:103C00002091E4003091E50095E6A9012091EC00B7
:103C1000822F817020FF06C08091E80080FF06C0DF
:103C200080E008952091E80022FD1AC0809156049A
:103C3000882389F0853089F08091EB0085FD0FC0E5
:103C40002091E4003091E50042175307F9F29150BA
:103C5000E1F684E0089582E0089583E0089581E02C
:103C600008950E94A01E0E94A81EE0EEF0E0808150
:103C700081608083E8EDF0E080818F77808319BCDC
:103C8000A7EDB0E08C918E7F8C9380818F7E8083B6
:103C90001092550408950F931F93CF93DF930E94C2
:103CA000A01E0E94A81EC8EDD0E088818F7788836F
:103CB00088818068888388818F7D888319BC109271
:103CC000560410925204109254041092530400EEC1
:103CD00010E0F80180818B7F8083888181608883F8
:103CE00042E060E080E00E94AD1DE1EEF0E0808106
:103CF0008E7F8083E2EEF0E080818160808380812E
:103D000088608083F80180818E7F808388818061D4
:103D10008883DF91CF911F910F910895E8EDF0E036
:103D200080818F7E8083E7EDF0E0808181608083F9
:103D300084E082BF81E0809355040E944B1E089569
:103D4000E8EDF0E080818E7F80831092E20008959C
:103D50001092DA001092E10008951F920F920FB6B0
:103D60000F9211242F933F934F935F936F937F9301
:103D70008F939F93AF93BF93EF93FF938091E10055
:103D800082FF0BC08091E20082FF07C08091E100BA
:103D90008B7F8093E1000E940C218091DA0080FFEC
:103DA00019C08091D80080FF15C08091DA008E7F05
:103DB0008093DA008091D90080FF96C080E189BDB0
:103DC00082E189BD09B400FEFDCF81E080935604F5
:103DD0000E94041B8091E10080FF19C08091E200E5
:103DE00080FF15C08091E2008E7F8093E200809179
:103DF000E20080618093E2008091D800806280932D
:103E0000D80019BC85E0809356040E94181B80914D
:103E1000E10084FF2BC08091E20084FF27C080E195
:103E200089BD82E189BD89B5982F917080FFFBCF54
:103E30008091D8008F7D8093D8008091E1008F7EA3
:103E40008093E1008091E2008F7E8093E200809178
:103E5000E20081608093E20080915204882309F49B
:103E600049C084E0809356040E94211B8091E100A8
:103E700083FF29C08091E20083FF25C08091E1008B
:103E8000877F8093E10082E0809356041092520471
:103E90008091E1008E7F8093E1008091E2008E7F2F
:103EA0008093E2008091E20080618093E20042E032
:103EB00060E080E00E94AD1D8091F00088608093FA
:103EC000F0000E94151BFF91EF91BF91AF919F9160
:103ED0008F917F916F915F914F913F912F910F90B3
:103EE0000FBE0F901F90189519BC109256040E9497
:103EF000121B70CF8091E30087FD93E090935604EE
:103F0000B3CF1F920F920FB60F9211242F933F93AE
:103F10004F935F936F937F938F939F93AF93BF93D1
:103F2000CF93DF93EF93FF93D091E900DF708091FF
:103F3000EC00C82FC17080FDC0E81092E9008091AC
:103F4000F000877F8093F00078940E94C51F109244
:103F5000E9008091F00088608093F000CD2BCF7055
:103F6000C093E900FF91EF91DF91CF91BF91AF91A5
:103F70009F918F917F916F915F914F913F912F9181
:103F80000F900FBE0F901F901895AAE2B0E0EBECD7
:103F9000FFE10C94632187E594E02091F100FC019E
:103FA0002193CF01F4E08F359F07B9F70E943C1BA6
:103FB0008091E80083FF1EC18091570490915804BE
:103FC0009A3008F017C1E92FF0E0E65EFD4D0C9441
:103FD0004E21803899F0823809F00CC180915B0441
:103FE0008F70873008F006C18093E9008091EB0064
:103FF00085FB882780F91092E90006C08091530460
:1040000090915404911182609091E800977F909371
:10401000E8008093F1001092F1008091E8008E7723
:10402000E5C0882309F4D3C0823009F0E3C0809151
:1040300059048111D6C080915B048F702FEF280F37
:10404000263008F0D7C08093E9002091EB0020FFD4
:10405000C8C0933031F48091EB0080628093EB0014
:10406000C0C09091EB0090619093EB0021E030E0B4
:1040700001C0220F8A95EAF72093EA001092EA0025
:104080008091EB008860EACF8111B4C0109159048F
:104090001F778091E3008078812B8093E3008091EB
:1040A000E800877F8093E8000E94E11D8091E8008E
:1040B00080FFFCCF8091E30080688093E30082E082
:1040C000111183E08093560495C08058823008F027
:1040D00091C08091590490915A048C3D23E092073D
:1040E000A1F583E08A838AE289834FB7F894DE01E1
:1040F000139620E03EE051E2E32FF0E050935700AA
:10410000E49120FF03C0E295EF703F5FEF708E2FC8
:1041100090E0EA30C0F0C7968D939D932F5F2431D5
:1041200059F74FBF8091E800877F8093E8006AE2EB
:1041300070E0CE0101960E94F01C8091E8008B7720
:104140008093E80057C0C096E7CF60915B04709100
:104150005C04AE014F5F5F4F0E943D1CBC01892B88
:1041600009F448C09091E800977F9093E800898116
:104170009A810E944E1DE1CF8038E1F58091E800E0
:10418000877F8093E800809152048093F10045CFAF
:10419000811130C090915904923060F58091E8000F
:1041A000877F8093E800909352040E94E11D8091E4
:1041B0005204882311F084E005C08091E30087FD5C
:1041C000FACF81E0809356040E942C1B13C080918B
:1041D0005904813079F481E0933009F080E08093D4
:1041E00054041092E9008091E800877F8093E800F2
:1041F0000E94E11D8091E80083FF0AC08091E800E1
:10420000877F8093E8008091EB0080628093EB00D1
:10421000AA96E3E00C947F210895CF9380915604F1
:104220008823A1F0C091E900CF709091EC00892F14
:10423000817090FD80E8C82B1092E9008091E80021
:1042400083FD0E94C51FCF70C093E900CF910895F0
:104250000E94311E109256040895E8EDF0E080812E
:10426000806180838AE18A95F1F700C08091D9004E
:1042700081700895AA1BBB1B51E107C0AA1FBB1F79
:10428000A617B70710F0A61BB70B881F991F5A95E2
:10429000A9F780959095BC01CD010895EE0FFF1F01
:1042A0000590F491E02D09942F923F924F925F92E6
:1042B0006F927F928F929F92AF92BF92CF92DF9236
:1042C000EF92FF920F931F93CF93DF93CDB7DEB79B
:1042D000CA1BDB0B0FB6F894DEBF0FBECDBF09942F
:1042E0002A88398848885F846E847D848C849B8486
:1042F000AA84B984C884DF80EE80FD800C811B8194
:10430000AA81B981CE0FD11D0FB6F894DEBF0FBEC2
:10431000CDBFED010895FB01DC0104C08D9101903A
:10432000801921F441505040C8F7881B990B08951B
:10433000FB01DC0102C001900D9241505040D8F7C2
:104340000895F999FECF92BD81BDF89A992780B55D
:104350000895A8E1B0E042E050E00C94D521262F6A
:10436000F999FECF92BD81BDF89A019700B402166B
:1043700039F01FBA20BD0FB6F894FA9AF99A0FBE19
:1043800008950396272F0E94B0210E94AF21252F68
:104390000E94B021242F0C94B0210196272F0E9457
:1043A000B0210C94AF21DC01CB01FC01F999FECFC7
:1043B00006C0F2BDE1BDF89A319600B40D924150AD
:1043C0005040B8F70895F894FFCF9C039C03ED0389
:1043D000ED03CB03CB03CB03CB036004D104E00498
:1043E000E004231597152B15F514F9142F15FD145A
:1043F00033153F15091590150D1543151115471562
:104400006F1515154B1576151B15511559150115F9
:10441000371505153B151F15551565157F158E1597
:10442000EF1427159E155216581641164C165E1697
:1044300064166A16E91F1120FA201120FA20442080
:084440006520FA20BC20C82011
:10444800AE010100000001000000000000000501AD
:1044580000000004060000000000000021007F2288
:104468000003C71AF01ACB1ACA1A01F6F731333209
:10447800366697C63435D50100081018181008009C
:00000001FF
